:020000040000fa
:080000000001040000000000f3
:020000040000fa
:04000800960200005c
:020000040000fa
:04000c009602000058
:020000040000fa
:040010009602000054
:020000040000fa
:040014009602000050
:020000040000fa
:04001800960200004c
:020000040000fa
:04001c009602000048
:020000040000fa
:040020009602000044
:020000040000fa
:040024009602000040
:020000040000fa
:04002800960200003c
:020000040000fa
:04002c009602000038
:020000040000fa
:040030009602000034
:020000040000fa
:0400340004020000c2
:020000040000fa
:04003800960200002c
:020000040000fa
:04003c009602000028
:020000040000fa
:040040009602000024
:020000040000fa
:040044009602000020
:020000040000fa
:04004800960200001c
:020000040000fa
:04004c009602000018
:020000040000fa
:040050009602000014
:020000040000fa
:040054009602000010
:020000040000fa
:04005800960200000c
:020000040000fa
:04005c009602000008
:020000040000fa
:040060009602000004
:020000040000fa
:040064009602000000
:020000040000fa
:0400680096020000fc
:020000040000fa
:04006c0096020000f8
:020000040000fa
:0400700096020000f4
:020000040000fa
:0400740096020000f0
:020000040000fa
:0400780096020000ec
:020000040000fa
:04007c0096020000e8
:020000040000fa
:0400800096020000e4
:020000040000fa
:0400840096020000e0
:020000040000fa
:0400880096020000dc
:020000040000fa
:04008c0096020000d8
:020000040000fa
:0400900096020000d4
:020000040000fa
:0400940096020000d0
:020000040000fa
:0400980096020000cc
:020000040000fa
:04009c0096020000c8
:020000040000fa
:0400a00096020000c4
:020000040000fa
:0400a40096020000c0
:020000040000fa
:0400a80096020000bc
:020000040000fa
:0400ac0096020000b8
:020000040000fa
:0400b00096020000b4
:020000040000fa
:0400b40096020000b0
:020000040000fa
:0400b80096020000ac
:020000040000fa
:0400bc0096020000a8
:020000040000fa
:0400c00096020000a4
:020000040000fa
:0400c40096020000a0
:020000040000fa
:0400c800960200009c
:020000040000fa
:0400cc009602000098
:020000040000fa
:0400d0009602000094
:020000040000fa
:0400d4009602000090
:020000040000fa
:0400d800960200008c
:020000040000fa
:0400dc009602000088
:020000040000fa
:0400e0009602000084
:020000040000fa
:0400e4009602000080
:020000040000fa
:0400e800960200007c
:020000040000fa
:0400ec009602000078
:020000040000fa
:0400f0009602000074
:020000040000fa
:0400f4009602000070
:020000040000fa
:0400f800960200006c
:020000040000fa
:0400fc009602000068
:020000040000fa
:040100009602000063
:020000040000fa
:04010400960200005f
:020000040000fa
:04010800960200005b
:020000040000fa
:04010c009602000057
:020000040000fa
:040110009602000053
:020000040000fa
:04011400960200004f
:020000040000fa
:04011800960200004b
:020000040000fa
:04011c009602000047
:020000040000fa
:040120009602000043
:020000040000fa
:04012400960200003f
:020000040000fa
:04012800960200003b
:020000040000fa
:04012c009602000037
:020000040000fa
:040130009602000033
:020000040000fa
:04013400960200002f
:020000040000fa
:04013800960200002b
:020000040000fa
:04013c009602000027
:020000040000fa
:040140009602000023
:020000040000fa
:04014400960200001f
:020000040000fa
:04014800960200001b
:020000040000fa
:04014c009602000017
:020000040000fa
:040150009602000013
:020000040000fa
:04015400960200000f
:020000040000fa
:04015800960200000b
:020000040000fa
:04015c009602000007
:020000040000fa
:040160009602000003
:020000040000fa
:0401640096020000ff
:020000040000fa
:0401680096020000fb
:020000040000fa
:04016c0096020000f7
:020000040000fa
:0401700096020000f3
:020000040000fa
:0401740096020000ef
:020000040000fa
:0401780096020000eb
:020000040000fa
:04017c0096020000e7
:020000040000fa
:0401800096020000e3
:020000040000fa
:0401840096020000df
:020000040000fa
:0401880096020000db
:020000040000fa
:04018c0096020000d7
:020000040000fa
:0401900096020000d3
:020000040000fa
:0401940096020000cf
:020000040000fa
:0401980096020000cb
:020000040000fa
:04019c0096020000c7
:020000040000fa
:0401a00096020000c3
:020000040000fa
:0401a40096020000bf
:020000040000fa
:0401a80096020000bb
:020000040000fa
:0401ac0096020000b7
:020000040000fa
:0401b00096020000b3
:020000040000fa
:0401b40096020000af
:020000040000fa
:0401b80096020000ab
:020000040000fa
:0401bc0096020000a7
:020000040000fa
:0401c00096020000a3
:020000040000fa
:0401c400960200009f
:020000040000fa
:0401c800960200009b
:020000040000fa
:0401cc009602000097
:020000040000fa
:0401d0009602000093
:020000040000fa
:0401d400960200008f
:020000040000fa
:0401d800960200008b
:020000040000fa
:0401dc009602000087
:020000040000fa
:0401e0009602000083
:020000040000fa
:0401e400960200007f
:020000040000fa
:0401e800960200007b
:020000040000fa
:0401ec009602000077
:020000040000fa
:0401f0009602000073
:020000040000fa
:0401f400960200006f
:020000040000fa
:0401f800960200006b
:020000040000fa
:0401fc009602000067
:020000040000fa
:100200000f8e20000e7f24000e01880000000000e9
:10021000000020000000e000020032000001200089
:100220002002880014000700c20007000000e00060
:1002300003003a0060ea22000100200002003700bb
:100240000000200001002000810f7000010032003a
:1002500014000700000020000000e000020032004f
:1002600000000200000000009421020000000000d5
:100270000040da000000fe004440a900c041200018
:100280000000e00003003200002020009001880000
:100290004440a800000006008a1f78008b1f7800e9
:1002a00000000600a1028800800478000000eb0036
:1002b0001f003700e284440054a0b4009905ba003e
:1002c000e284440054a0b4009906ba00e2844400d9
:1002d00054a0b4000006eb00476fde00fd07b2003b
:1002e000ae018800636ce10003003a00eaff0700fa
:1002f0000000eb000e003700606ce10008003a00df
:10030000004deb000a05e800020039003420ec0043
:100310000af0a0008b05e900f9ff3e000400370059
:100320006168e100010032000086eb000b0007006d
:1003300019c7ba001905ba000e04e00003003a001c
:100340000a00e000dbff3a0000000600fe07b200f2
:10035000ae0288008a047800f5ff37000cd0a300b5
:10036000e20f4d001c00390089027800354dba00bb
:100370000a05e800020039003420ec000af0a00071
:100380008b05e9000f003200254dba000a05e80090
:10039000020039003420ec000af0a0008b05e900cf
:1003a000080032000c00e0000600320015cdba0053
:1003b0000a05e800020039003420ec000af0a00031
:1003c0008b05e9008984e80054a0b4000b00e0002c
:1003d000e2ff3a00000006009902ba00055d7800cd
:1003e0008b05e900f7ff3200c82ade00055d7800c2
:1003f0008b05e900f3ff32000c00e000f1ff320052
:1004000019ddba00eeff37003600f800809fbe000d
:10041000829fbe00849fbe00869fbe000200fa003d
:10042000bb0607000004e000360032001000200088
:10043000000f780030003700405b84003015070063
:1004400001638400c0c728008102780000027800a0
:1004500013c0b30012c0b30081c2b300a0c0b30088
:100460002d1307000163840080c8280081027800f2
:100470000002780013c0b30012c0b30041c3b30040
:10048000a0c0b30024130700320b07006063840090
:100490001b15070001638400c0c728008102780093
:1004a0000002780013c0b30012c0b30081c2b300d1
:1004b000a0c0b300181307000163840080c828009f
:1004c000810278000002780013c0b30012c0b300ac
:1004d00041c3b300a0c0b3000f1307009415070079
:1004e0000004e000040032000063840004150700eb
:1004f0000000eb00000f78001e0078000000e00014
:10050000cdff3a001cc8bf00720907008860a9002f
:100510000080fa004f03be004f02be004f01be0034
:100520004f00be003600f900004006000040da002f
:100530000000fe000000050003f0a200889fbe003e
:100540008a9fbe008c1f780019010700200133002c
:100550006450e1004f0032006420e100520032009c
:1005600003826c0007003b000905d0000306d000a1
:10057000820f54000c065d000200390002003200b8
:1005800089017800030678008582550004003d004b
:100590000003fd008103fd008502ea008b85420017
:1005a000840f720002003b0060001000e080180021
:1005b0006011b8000005eb007a28e1000a0039005c
:1005c00006007800c75ddd00f707b2008780750080
:1005d0002d003700828171000a01780061056000fa
:1005e0008180d1000080d3008502e900f9ff3b0043
:1005f000060440008784480002003b0060041400a9
:10060000e0841c000988a300070032008a81710081
:1006100082817100610164008904d1000884d300e3
:100620008b05e800170037000978a30013003a0093
:100630000b00e000130034008b05e90008044400bf
:1006400089844c000a4474000978a3000d003a0024
:100650000b00e000070034008b05e90008044400ab
:1006600089844c0001003a000b0020000978a300a7
:10067000f7ff32000001eb000200370082817100b9
:100680000a0178008f0007000cf0a70001f0a0001d
:10069000d80037006420e10002003a00838f6c002c
:1006a000d80033000801be000200be00d1003700b0
:1006b0000081eb000a013700889fbe008a9fbe00c0
:1006c0008c1f7800ba000700c100330003866c005d
:1006d0006450e1002e0032006420e100330032005b
:1006e0006150e1002f0032006120e1003100320052
:1006f00085855500eb07b0000900200008042000a4
:10070000050037000804440089844c000a003100c9
:100710000603430087834b000001530081815b0087
:10072000f8ff33000203be000800a00008044400e4
:1007300089844c00f6ff3900c639dd00830173005f
:1007400001003200130020008904d1000884d30086
:100750000998a300050032000800a7000300a000cc
:100760008904d1000884d3008b05e8008904d100f6
:100770000884d3000001eb000281d2005100070081
:1007800001f0a1000cf0a70001f0a00099003700d3
:100790006420e1009b0032000801be000200be00a0
:1007a000f7ff37006120e100960032006000b800da
:1007b000f3ff37000000200001f82700f0ff3700aa
:1007c0000001be00650007000470a70003f0a1004f
:1007d0006509b100160032000d0035006828e100ff
:1007e00006003500f0ff2f00f1ff27000300e000b6
:1007f00013003b000100280000000500000040003d
:10080000818048008502e900fcff3a0008003700bb
:10081000f88f420002003c008000eb000000050061
:100820008100d1000080d3008502e800fcff3a007f
:100830000300e00002003b0060001000e0801800b0
:10084000000006000001be00440007000470a7007d
:1008500003f0a10003f8a30013003a006509b100fa
:1008600010003200090035006928e100020035005f
:1008700001002800000005000000400081804800c1
:100880008502e900fcff3a0000000600f88f4200f4
:10089000050035008100d1000080d3008502e8000a
:1008a000fcff3a00000006008000eb00000005009d
:1008b0004f89de0082017800f60037006011b80031
:1008c0000401370081002000618055000b003d00cd
:1008d0000b00200061fe2f000100e1001d0034002c
:1008e00082817100610164008904d1000884d30011
:1008f0000000e800faff3a00710020006100640087
:10090000030070000200600009003200610444002e
:10091000e0844c000988a500050032008b05e80042
:100920006808e10002003a008904d1000884d3007d
:10093000f20f20000258e10005003d00c75ddd0018
:10094000f907b200898075000800780000000600f1
:100950000bf827008b00780000000500c70ade00b6
:10096000f107b200f50fb20008003200e1cf4200fb
:10097000020032000170a00024000500810f700009
:10098000010032000408050044000500810f7000da
:1009900002003a00140005008502e9000000400052
:1009a00081c04800fcff3b000170a000240005004e
:1009b0000004be00e9ff07000003be000405be00fe
:1009c0000200be00e5ff0700844f7500000006002e
:1009d0000200be006450e100050036006420e10022
:1009e000020036000968a30001003a000800be00ba
:1009f0000160a0004f0678004f05be004f04be0006
:100a000000000600f0ff2f00f1ff2700f9ff37007c
:100a1000889fbe008a9fbe008c1f7800e4ff0700fd
:100a2000ebff330003866c006450e10024003200c9
:100a30006420e100270032006150e1002200320012
:100a40006120e100210032008b854200eb07b100fc
:100a50000134b800003ab8000804420089844a0012
:100a6000013ab8000030b8008880400009014a000f
:100a7000040033000000400081804800020149006a
:100a80008b05e900c909dd00830170000100320017
:100a900013002000c814de004814dd004709de0002
:100aa0001200b200c808de000884700085ff07004d
:100ab00001f0a1000cf0a70001f0a000cdff37006d
:100ac0006120e100cfff32000801be000200be003d
:100ad000f7ff37006150e100fcff3a00c9ff370023
:100ae000889fbe008a9fbe008c9fbe008205780052
:100af0000004be0099ff07000800be006420e1006a
:100b00000700390002003a00f1ff2700f0ff2f0034
:100b10000160a00012022000224188005500370029
:100b20006120e10003003a000b00a70001f8230058
:100b30005000370001f0a10002002100936424005e
:100b4000520007000800be0004003500b2fd20007e
:100b5000930c24008e0007000004be000005eb008b
:100b60000b00a6004f0dde0001f0a1000004be0046
:100b700032982f0023ea2300a5ff07000001eb00b5
:100b800003f023000b00a70003f823006bfe07000f
:100b90000bff07000000a7000a00a20044ff0700a7
:100ba0000b00e000030032000200200003f02300ed
:100bb00061fe070001f0a2000006be000200200056
:100bc0009304240092ff07000801be005bfe0700ab
:100bd000809fbe000c00be0022a22a00d3a72300e3
:100be0008bff07004f01be0054fe07000004be004b
:100bf00001f0a10002002000039823002300070059
:100c00000800be00190035000001be0080ff07008b
:100c10000006be00b2c52900e36223007cff070086
:100c200022222b00f3942b0044fe07000c01be008f
:100c300077ff0700e273280083c023003ffe070010
:100c40000c01be0072ff070042aa2a00a3e22b009b
:100c50003afe07000c01be006dff07000801be0050
:100c60006bff07000801be0034fe07000a00a70062
:100c700001f0a2004f06be004f05be004f04be00ab
:100c8000000006000001eb0095ff37001400200073
:100c900090003700881f7800030478000300e0000c
:100ca00007003d0060001000e0801800600119009e
:100cb000e081190002003b0001f02d000300370025
:100cc0000400070008f0a70001f0a0004f0478001e
:100cd00000000600889fbe008a9fbe000082700050
:100ce0000402710004827100260032000004be007c
:100cf0000200be006011b8006b09200095022000c0
:100d00000182cf000a0039000541b1000082cf0006
:100d1000070039000541b1000982cf000400390005
:100d20000541b1000882cf00010039000541b10042
:100d300005425200120032000a003b00828171001d
:100d4000610164008100d1000080d3008984d30058
:100d50000884d3008b05e8000442e800f7ff3a005e
:100d6000070037000804440089844c000000480054
:100d7000818048008b05e9000442e900f9ff3a0050
:100d8000d0fe07004f05be004f04be000000060065
:100d90000400200000003700889fbe008a9fbe002c
:100da0008c1f78004f26dd0001ff070008ff33008d
:100db0006120e100430032006250e10041003e004a
:100dc0003e0039006420e1003c00320005825500fd
:100dd0000f003b000402e80038003a00800f530087
:100de000818f5b00350034000800be0003f0a100d5
:100df00001f0a60003f0a0000cf0a700cffd070053
:100e0000fcfe37000603430087834b000c46460078
:100e10000005530081855b00020033000a03be0019
:100e20000c00a0000402e900f6ff3b0085057800f5
:100e30000602430087824b0004003a006000b800bd
:100e400009f0a70001f0a000eafe370000025200fe
:100e500081825a000704e0000400330006034300c7
:100e600087834b008b05e900faff370009057800fe
:100e70000604be000203be006011b80091fe070028
:100e8000e00f5200e08f5a000700350002003c00de
:100e90000c08a300040032000601be0003f0a0000d
:100ea0000cf0a700a5fd07000a85680001f0a1006d
:100eb0000af0a70001f0a000cefe37000800be0037
:100ec000ccfe3700100220000cf0a6002041880064
:100ed000ccfe3700889fbe008a9fbe00841f78002a
:100ee000b3fe07004f00780011003300f0ff2f0021
:100ef000838f6c0006003b00040565000a00a70014
:100f00000800370009f0a600100020000800370094
:100f1000820f5400838f5c00030039001000200012
:100f200001003e000000200009f0a7000000ea00d8
:100f30004f05be004f04be000000e00000000600a8
:100f400000017800820178003204e000fdff3a00e1
:100f500003017800b1417800035978000304e000f0
:100f6000fcff3a0000000600020037000204e00027
:100f70000b003200810178000002780030417800d7
:100f8000b14f5100f9ff32001000200014427800e8
:100f9000934f5200030031000080eb000000060078
:100fa0000000eb000000060000017800b14178006d
:100fb000035978000304e000fcff3a00000006003b
:100fc000ee874700889fbe008a9fbe008c9fbe00b0
:100fd0008e1f7800f0b79f00010678008205780028
:100fe00000047800080578000a047800b846780004
:100ff0000d00fb008e0007000000e000f9ff3a0042
:10100000d0c2b30080cf56000300320000c0e90018
:1010100080cf560002003a000a05e80001003700c0
:10102000804678000b00e00005003500e18f550098
:101030000300320040022000808f5500060034007b
:101040006044b8000c00e000720032007fb09700ee
:10105000000e7800480037000b00e0000e00320060
:10106000f08f55001a003a0000c3b3009a4f1000e9
:1010700017003a001a40900081c7b300814f50001a
:101080000300320081c5b300814f500010003a00c8
:101090000a85e8000e003700ab00200000c3b30053
:1010a0009a4f10000a003a001a40900081c7b3001e
:1010b000814f5000040032008b00200081c5b30036
:1010c000814f500002003a000a85e8000b01200021
:1010d0000a007800000278000400780001c3b30021
:1010e000b0cf1000fbff3200040778006044b80066
:1010f000b4b79f000d00370061822000814050008e
:10110000c1ef9f006159b9000800be0071000700df
:101110004fea97000401fb00cf91de00c8b79f00a3
:10112000d9b79f0002044000838448008e027800f3
:101130003e00fb0085bf9f00450007000b017800c3
:101140008000780060822000480007008fba970076
:101150000000e000e8ff3a003fb29700850f55001d
:1011600007003a006044b8000c00e000290032009b
:10117000ffb29700050e78006044b80025003700e4
:1011800004825200b084200060c07d000000fb009b
:10119000000252001700330011003a004fe9970097
:1011a0000200fb00cf80de000000540081805c0064
:1011b000800f5400818f5c00090039006159b9002b
:1011c00085bf9f00330007008fba97004fb197008b
:1011d000dfb19700820f5000838f58000500320066
:1011e00020022000204188000084eb008084eb0076
:1011f00005003700d0c2b30080cf560002003a008d
:1012000060041400e0841c000c00e00001003200c7
:10121000050e78000800be004f0778004f06be009c
:101220004f05be004f04be00ef00b10000000600f5
:101230006900e100040035006d00e10003003400a6
:101240000002b1000100320000000500100005009e
:10125000800078001104b100030035009101b10055
:1012600001003c000050a000000006000300370011
:10127000b0cf1000050032000201e90080017800c3
:101280000200e000faff3a000000050003007800c9
:10129000000006006022b800060220000000d00016
:1012a0008180d2000482d2008582d2000000a0009a
:1012b0000202520083825a000300310002024200ff
:1012c00083824a000000a1000603e900f3ff3a0010
:1012d00000000600020ab900001bb9000200b800b5
:0c12e00081004200810043000000060075
:020000040000fa
:1012ec005f5f000005080000000000000000000027
:1012fc000000000000fa00000000000000e0000008
:10130c0000e0000000280000fe280000fe2800007d
:10131c0024540000fe54000048c40000c810000013
:10132c00264600006c9200006a0400000a000000cf
:10133c0010e00000c00000000038000044820000f3
:10134c000000000082440000380000005438000007
:10135c00fe38000054100000107c0000101000003b
:10136c00000000000e0c0000001000001010000027
:10137c001010000000000000060600000004000031
:10138c0008100000204000007c8a000092a200009f
:10139c007c00000042fe0000020000004e920000a3
:1013ac00929200006284000082920000b2cc000095
:1013bc001828000048fe000008e40000a2a200006b
:1013cc00a29c00003c520000929200008c82000013
:1013dc008488000090e000006c9200009292000063
:1013ec006c620000929200009478000000000000f3
:1013fc002800000000000000022c0000000000008b
:10140c00001000002844000082280000282800005a
:10141c002828000000820000442800001040000032
:10142c00809a0000906000007c820000ba9a000054
:10143c00723e000048880000483e0000fe9200000a
:10144c00929200006c7c00008282000082440000ba
:10145c00fe820000828200007cfe0000929200005e
:10146c0092820000fe90000090900000807c0000b2
:10147c00828200008ace0000fe10000010100000d6
:10148c00fe00000082fe000082000000040200004a
:10149c0082fc000080fe0000102800004482000046
:1014ac00fe0200000202000002fe000040380000b4
:1014bc0040fe0000fe20000010080000fe7c000032
:1014cc0082820000827c0000fe9000009090000060
:1014dc00607c0000828a0000847a0000fe9000008c
:1014ec00989400006264000092920000924c0000fc
:1014fc00c0800000fe800000c0fc00000202000062
:10150c0002fc0000f804000002040000f8fc0000db
:10151c00021c000002fc0000c6280000102800007d
:10152c00c6c00000201e000020c00000869a0000eb
:10153c0092b20000c2000000fe8200008282000015
:10154c00402000001008000004000000828200000f
:10155c0082fe0000204000008040000020020000bd
:10156c00020200000202000000c00000e0100000b7
:10157c00000400002a2a00001c020000fe140000d7
:10158c00222200001c1c0000222200002214000059
:10159c001c22000022140000fe1c00002a2a00005d
:1015ac002a180000001000007e900000403000005f
:1015bc004a4a0000523c0000fe10000020200000af
:1015cc001e00000022be0000020000000402000009
:1015dc0002bc000000fe0000081400002200000005
:1015ec0000820000fe020000003e0000201e0000f1
:1015fc00201e00003e100000202000001e1c0000d9
:10160c0022220000221c00003e18000024240000ae
:10161c001818000024240000183e00003e100000a2
:10162c0020200000101200002a2a00002a240000aa
:10163c0020200000fc220000243c000002020000dc
:10164c00043e00003804000002040000383c000096
:10165c00020c0000023c00002214000008140000e0
:10166c00223200000a0a00000a3c00002226000078
:10167c002a32000022000000106c000082000000e2
:10168c0000000000fe00000000000000826c000062
:10169c0010000000408000004020000040000000ce
:1016ac00dff700005aff0000ff070000fa7f000080
:1016bc00fff70000bbf7000038ff0000000000003f
:1016cc0059ff00001f0000005c89000045a10000cc
:1016dc00d0dd0000f45c0000e07f000043d300008c
:1016ec00eafb0000bd640000dbff0000a7d800008f
:1016fc00ff070000110000005104000021bc000095
:10170c0055ad00002003000055ad0000adbd00003c
:10171c00118800004553000060fc000099990000fe
:10172c0000880000afec0000f18d0000f1490000d2
:10173c00692a0000692a00007a0600001a9000004d
:10174c00b2f80000ff0500004d6b00004d6b00006f
:10175c009f1c000004b10000deff000044240000c8
:10176c001ff80000fbde0000dfff0000a0fe000001
:10177c0024dd00001084000000040000e5af000030
:10178c0010840000fef7000056fb0000ebca0000be
:10179c0010480000feff000031f700003fe700009a
:1017ac009eff0000e07f0000d9ff0000dcae0000cf
:1017bc0010f40000ffe70000daff00009ad60000ea
:1017cc00729700009ad60000b8fd00000ffd0000d3
:1017dc00952500007f8600005374000053740000b0
:1017ec003bb60000fcff0000e0070000663600007e
:1017fc009cff00001ff800000080000075660000d0
:10180c0019000000baba00009b9300008e3d000046
:10181c005d7b0000d3070000994e0000b0c00000b3
:10182c00ce180000fff700003cff000036ff000060
:10183c00f5fe000010000000bcff0000008400005a
:10184c00646c000020fd000020fa00009adb000010
:10185c0055ef0000d39f00007daf000092db00002d
:10186c007aff0000d7fe000027cc000019fe000014
:10187c001bdd00001cb700001080000000f8000009
:10188c0071bc00005c430000228a00000efc0000ca
:10189c002cf500004a2c0000bdff000085a20000c2
:1018ac0018c600007d860000d96a00001274000082
:1018bc0012740000dfff0000ef0700001644000068
:1018cc00b1d5000010040000fbdd000008fb000097
:1018dc001a4700001dec0000f6f60000ffff0000a8
:1018ec00bef70000e0ff0000669e00005072000092
:1018fc006573000073200000733100002054000059
:10190c006f000000537400006f7000002041000055
:10191c006c610000726d000000430000686f0000f5
:10192c0073650000207400007970000065000000f1
:10193c004469000067690000746100006c200000bd
:10194c00576100007463000068000000416e0000e5
:10195c00616c00006f67000020570000617400008c
:10196c006368000000450000786300006c7500009f
:10197c007369000076650000205700006174000058
:10198c006368000000530000312000004564000033
:10199c00697400002f4500006e7400006572000031
:1019ac0000530000617600006500000042610000f9
:1019bc00636b00000031000032200000446900001d
:1019cc00737000006c610000792000005469000005
:1019dc006d650000003200003420000044690000f6
:1019ec00737000006c6100007920000054690000e5
:1019fc006d6500002b00000043680000616e000064
:101a0c0067650000205700006174000063680000e7
:101a1c00005300006574000020540000696d000044
:101a2c00650000005365000074200000616c00002c
:101a3c00617200006d200000636c00006f63000099
:101a4c006b00000045780000697400000000000085
:101a5c00228a000000880000dfff000008fb000065
:101a6c001f000000000000004a6100006e00000032
:101a7c0046650000620000004d610000720000002d
:101a8c0041700000720000004d6100007900000000
:101a9c004a7500006e0000004a7500006c000000e2
:101aac0041750000670000005365000070000000e5
:101abc004f630000740000004e6f000076000000c1
:101acc004465000063000000414d00000050000020
:101adc004d0000004665000062200000313500001a
:101aec00203200003032000032000000313700009c
:101afc003a310000313a000032330000000000009f
:101b0c002001000000000000000000002001000087
:081b1c000f00000000000000b2
:020000040000fa
:101b24000000fa0022c8bf000004e00002003200f6
:101b34002268ef000200370010c0b30022e8b700ab
:101b44000080fa00000006000000fa003040800027
:101b54008000400080882000008040001000780051
:101b640090407800908a200001487800304080003e
:101b74008000400080882000008040001000780031
:101b84000000e80090407800a08a20000148780016
:101b940030408000800040008088200000804000a9
:101ba400100078000080e80090407800b08a20009f
:101bb400014878000080fa00000006000200fa00e4
:101bc400000f780040408000e40f500003003a000a
:101bd40040408000e20f500002003200404080008c
:101be400504088009e0078004140880010c0b30037
:101bf40004e8b7000080fa00000006000000fa00c4
:101c040050408000404088000080fa000000060038
:101c14000000fa0061c4b300a0c4b30080cf500038
:101c240008003a0051c6b30010c6b30080cf50007c
:101c340004003a0021c6b300e0c6b30080cf5000d0
:101c44006c00320061c4b30060c4b30080cf5000a4
:101c54006600320061c4b300d0c4b30080cf50002a
:101c640008003a0051c6b30010c6b30080cf50003c
:101c740004003a0021c6b30020c7b30080cf50004f
:101c84005800320061c4b30010c4b30080cf5000c8
:101c940004003a0051c6b30000c7b30080cf50001f
:101ca4004e00320061c4b300d0c4b30080cf5000f2
:101cb40008003a0051c6b30010c6b30080cf5000ec
:101cc40004003a0021c6b30090c7b30080cf50008f
:101cd4004000320061c4b300a0c4b30080cf500000
:101ce40008003a0051c6b30050c7b30080cf50007b
:101cf40004003a0021c6b300e0c6b30080cf500010
:101d04003200320061c4b300a0c4b30080cf5000dd
:101d140008003a0051c6b30050c7b30080cf50004a
:101d240004003a0021c6b300c0c6b30080cf5000ff
:101d34002400320061c4b30010c4b30080cf50004b
:101d440004003a0051c6b30050c7b30080cf50001e
:101d54001a00320061c4b30030c5b30080cf500014
:101d64001400320061c4b300f0c4b30080cf50004b
:101d74000e00320061c4b300e0c4b30080cf500051
:101d84000800320061c4b30040c4b30080cf5000e7
:101d940002003a00b000200001003700f0032000e8
:101da40001003700a000200001003700900020004f
:101db400010037008000200001003700700020007f
:101dc40001003700600020000100370050002000af
:101dd40001003700400020000100370030002000df
:101de400010037002000200001003700100020000f
:101df400010037000000eb00304088000080fa004a
:101e0400000006000200fa00000f78009e0078002f
:101e14006480400090407800d08a20000148780017
:101e24009e0078006580400090407800e08a2000a1
:101e3400014878009e007800678040009040780058
:101e4400008b2000014878009e00780068804000e4
:101e540090407800108b2000014878009e007800a4
:101e64006980400090407800208b20000148780071
:101e74009e0078006a80400090407800308b2000fb
:101e8400014878000080fa00000006000200fa0011
:101e9400004f78001e00fb00f002b00030408800c4
:101ea40029ff07000080fa00000006000200fa0083
:101eb400000f7800018a20001e00780039fc07001a
:101ec4000080fa00000006000200fa00000f78000b
:101ed400918a20001e00780032fc07000080fa007e
:101ee400000006000400fa00000f780011079800b3
:101ef4001e007800c3ff07009e0090003140880058
:101f040011ff07000080fa00000006000a00fa0032
:101f1400018a20000e00780022fc07001240800095
:101f2400706626000090b900c288de004f90de0083
:101f340000805000004078000043b000004f78005b
:101f440011408000706626000089b9004299de00c5
:101f54004f88de00000051006a01b90002007800d9
:101f640000805000004078000043b0001047980003
:101f740001c8bf000004e0000d0032008e007800ac
:101f8400508b2000f7fb07000000e00008003a0037
:101f9400918a2000e08b2000f2fb07000000e000a3
:101fa40003003a000168ef0010c0b30001003700dd
:101fb4000040eb000080fa00000006000400fa0074
:101fc400000f78001107980010c0b30001e8b700b3
:101fd4009e007800508b2000f2fb07009e009000ca
:101fe400e08b2000effb07000080fa0000000600f1
:101ff4000600fa00200798002e0090001040780098
:10200400004f78002e0090000000e8001040780097
:10201400104798000040eb0020479800a2002000e1
:102024008000eb000e007800e4fb0700000078005d
:102034001040880010408000eb0f50000c003c0062
:1020440010c0b30000e8b70071698400a0d628006e
:10205400810278000002780013c0b30012c0b300fc
:1020640001c5b30050c0b3002a0c07000a003700b2
:102074000068ef0071698400d0d6280081027800de
:102084000002780013c0b30012c0b30001c5b3004e
:1020940050c0b3001f0c0700208a2000a1c3b30066
:1020a400014878002e0090006300400090407800c2
:1020b400308a2000014878002e009000640040001f
:1020c40090407800408a200001487800508a20001f
:1020d400a1c3b300014878002e00900066004000c0
:1020e40090407800608a2000014878002e0090001b
:1020f4006700400090407800708a20000148780012
:10210400808a20008040eb00014878000080fa00bb
:10211400000006000000fa00bdfe07008afe07006a
:10212400c08a200001c2b3000148780000d728000b
:1021340034ff0700f08a200001c2b3000148780090
:10214400408b20008040eb0001487800c0d7280075
:10215400a7ff070071698400908a2000810278003b
:102164000002780013c0b30012c0b30001c5b3006d
:10217400e0c1b300e70b07000080fa00000006008e
:102184000200fa00000f78001e0078008000400072
:102194008088200000804000100078000080fa0051
:1021a400000006000000fa0022c8bf000080fa0008
:1021b400000006000200fa00000f78001e007800fc
:1021c400800040000087200000804000100078005c
:1021d4000080fa00000006000000fa0010408000b1
:1021e400eb0f500019003c0000c8bf000004a2001f
:1021f4000004e0003b00320010c0b30000e8b70068
:1022040091698400d0d62800810278000002780009
:1022140013c0b30012c0b30001c5b30050c0b30073
:10222400bc0b070071698400a0d6280081027800e5
:102234000002780013c0b30012c0b30001c5b3009c
:1022440050c0b300b30b07002600370000c8bf001e
:102254000004e000230032000068ef00916984006c
:10226400a0d62800810278000002780013c0b300d1
:1022740012c0b30001c5b30050c0b300a50b0700e2
:1022840071698400d0d628008102780000027800a9
:1022940013c0b30012c0b30001c5b30050c0b300f3
:1022a4009c0b0700906984008002780024c0b3006e
:1022b40043c2b300b2c1b30041c2b30050c1b300c2
:1022c400530a0700906984008002780024c0b30098
:1022d40043c2b300b2c4b30041c2b30050c4b3009c
:1022e4004b0a07000080fa00000006001000fa0004
:1022f4000000eb00000f7800706984000002780091
:10230400e3c2b30002c6b300a1c1b3000040eb00b6
:10231400fa0a0700906984000002780063c2b300df
:1023240002c6b30041c2b3000040eb00f30a070049
:10233400706984008001780042c2b30041c2b300d6
:1023440000c3b300e00807009069840080017800ae
:1023540032c0b30041c2b30000c3b300da080700bf
:102364000468ef000000eb00000f7800560037000f
:1023740010c0b300204798001e0078008000eb00d6
:102384004df90700200798003107980012ee22004b
:10239400532624002e009000be009000c5f80700cc
:1023a40020079800310798002e009000be0090008e
:1023b40033fa0700020020000320240093f90700e9
:1023c40002002000032424005bf807001cf9070026
:1023d400400798002e009000be009000b3f807005c
:1023e400020020000320240088f907000001be0039
:1023f40000002000012124004ef8070010f9070016
:10240400500798002e009000be0090001cfa0700b0
:1024140002002000831d24007cf907000200200034
:102424000324240044f8070005f907006007980016
:102434002e009000be0090009cf8070002002000cf
:10244400831d240071f907000001be000000200074
:102454000121240037f80700f9f8070070079800f5
:102464001e01780030d822000010b8004408de00b5
:10247400a10520000180b90000007800000051008f
:102484000000e00002003a0020c0b300204798009a
:10249400946984007e009000804178006e00900072
:1024a400004178005e009000804078004e0090006b
:1024b40000407800840278002e429000d40907007e
:1024c4009e0078007e8f4000701620009e007800e9
:1024d400808f5000a6ff36000080fa00000006003e
:1024e4001200fa006007980071079800020f980024
:1024f4008e09900032c0b30041c2b30000c3b300e0
:1025040071080700108a2000104078000000fb00ca
:1025140002fd2f0000014100008a200010407800d5
:102524000000fb006a00b90000007800001eb10042
:10253400000f4100408a2000104078000000fb009a
:1025440002fd2f0000014100308a20001040780075
:102554000000fb006a00b90000007800001eb10012
:102564000000410010079800708a20001040780095
:102574000000fb0002fd2f0000014100608a2000e2
:10258400104078000000fb006a00b90000007800e9
:10259400001eb10000004100200798006000b80050
:1025a40030079800410798000000eb00500798009e
:1025b4002e0090006600b9000000780050079800d3
:1025c4005e0090008000eb00bbf8070012ee2200d2
:1025d4005326240037f80700300798004107980075
:1025e4003e009000ce009000a5f9070002002000f4
:1025f400831c240005f907000200200003242400a2
:10260400cdf707008ef807000000780060408800ce
:102614003e009000ce00900024f807000200200045
:10262400831c2400f9f807000001be00000020000c
:1026340001212400bff7070081f80700000078009b
:1026440070408800704080008040780060408000c6
:1026540000407800ee02900014c0b300814178007d
:102664000041780041c2b30000c3b3006809070009
:102674001e0090006600b900000078005007980022
:102684005e0090008000eb008bf8070012ee220041
:102694005326240007f807003007980041079800e4
:1026a4003e009000ce00900075f907000200200063
:1026b40003192400d5f80700020020000324240095
:1026c4009df707005ef8070000007800804088004e
:1026d4003e009000ce009000f4f7070002002000b6
:1026e40003192400c9f807000001be0000002000ff
:1026f400012124008ff7070051f80700000078003b
:1027040090408800904080008040780080408000a5
:1027140000407800fe02900014c0b30081417800ac
:102724000041780041c2b30000c3b3003809070078
:102734001e0078007e00b900800178001e00900021
:102744006600b90000017800b0aa22000090b90028
:102754008180d1004f90de00008050000080410055
:10276400cf80de0051f80700300798004107980039
:1027740012ee2200532624003e009000ce0090006a
:10278400ccf7070030079800410798003e009000fe
:10279400ce0090003af90700020020000310240044
:1027a4009af80700020020000324240062f70700bf
:1027b40023f8070000007800a04088003e00900045
:1027c400ce009000b9f70700020020000310240097
:1027d4008ef807000001be00000020000121240043
:1027e40054f7070016f8070000007800b04088008e
:1027f400b040800080407800a04080000040780015
:102804008e0a900034c0b300814178000041780002
:1028140041c2b30000c3b300fd0807000080fa0002
:10282400000006001000fa000000eb00000f780022
:10283400c06984000002780033c0b30042c2b30010
:1028440041c2b30000c3b30028080700c069840074
:102854008001780032c0b30041c2b30000c3b300aa
:10286400990707000468ef000000eb00000f7800f0
:102874005600370010c0b300204798001e007800af
:102884008000eb000cf8070020079800310798003f
:1028940012ee2200532624002e009000be00900069
:1028a40084f7070020079800310798002e00900055
:1028b400be009000f2f8070002002000032024006c
:1028c40052f8070002002000032424001af707002e
:1028d400dbf70700400798002e009000be00900030
:1028e40072f70700020020000320240047f80700c5
:1028f4000001be0000002000012124000df70700a4
:10290400cff70700500798002e009000be009000fb
:10291400dbf8070002002000831d24003bf80700b9
:10292400020020000324240003f70700c4f7070073
:10293400600798002e009000be0090005bf707002f
:1029440002002000831d240030f807000001be00af
:102954000000200001212400f6f60700b8f7070064
:10296400700798001e01780030d822000010b800cb
:102974004408de00a10520000180b90000007800b1
:10298400000051000000e00002003a0020c0b30043
:1029940020479800c46984007e009000804178003c
:1029a4006e009000004178005e0090008040780046
:1029b4004e00900000407800840278002e4290007f
:1029c400930807009e0078007e8f40007016200058
:1029d4009e007800808f5000a6ff36000080fa0029
:1029e400000006000600fa0022c8bf000004e00050
:1029f4001100320012408000706626000090b90079
:102a0400c288de004f90de00008f5000104080002e
:102a1400716626000181b9004299de00cf80de0094
:102a2400810051006a09b900820078000100500059
:102a3400100798001800370011408000c0002000e3
:102a440000017800110009008200d8008000fd0018
:102a5400200798002e019000706626000090b900af
:102a6400c288de004f90de0000805000000f780026
:102a74002e009000716626000181b9004299de00a3
:102a8400cf80de00810051006a09b900820078001d
:102a940001005000100798001e00780000407800e4
:102aa4000043b00080407800008a2000014878008c
:102ab4001e009000004078000043b0008040780081
:102ac400108a2000014878000080fa000000060007
:102ad4000200fa00004f78001e4078000004e00075
:102ae4001a00320040408000e20f500015003a0006
:102af40091698400008a2000810278000002780035
:102b040013c0b30012c0b300d1c4b300d0c2b30029
:102b1400800907008e010700b2ff07007169840075
:102b2400008a2000810278000002780013c0b300fc
:102b340012c0b300d1c4b300d0c2b30075090700fa
:102b44007d003700820107007b0037004040800091
:102b5400e30f50002f003a007d01070004c8bf00b6
:102b64000004e00002003200e0fd0700240037000a
:102b7400726984007040800080407800604080006a
:102b8400004078008202780014c0b30081417800cc
:102b94000041780041c2b30000c3b3001c08070021
:102ba40072698400904080008040780080408000fa
:102bb400004078008202780014c0b300814178009c
:102bc4000041780041c2b30000c3b30010080700fd
:102bd40072698400b040800080407800a04080008a
:102be400004078008202780024c0b300814178005c
:102bf4000041780041c2b30000c3b30004080700d9
:102c040092698400916984009069840034fe07000d
:102c140049003700404080000000e00015003a0001
:102c240091698400008a2000810278000002780003
:102c340023c0b30022c0b30081c2b30050c0b300ac
:102c4400340907004201070066ff07007169840028
:102c5400008a2000810278000002780023c0b300bb
:102c640022c0b30081c2b30050c0b30029090700d9
:102c74003100370040408000e10f50002e003a0040
:102c84003301070004c8bf000004e0000200320062
:102c9400e4fe07002400370092698400704080003d
:102ca4008040780060408000004078008202780014
:102cb40014c0b300814178000041780041c2b300e0
:102cc40000c3b300d20707009269840090408000db
:102cd40080407800804080000040780082027800c4
:102ce40014c0b300814178000041780041c2b300b0
:102cf40000c3b300c607070092698400b040800097
:102d040080407800a0408000004078008202780073
:102d140024c0b300814178000041780041c2b3006f
:102d240000c3b300ba070700c2698400b169840014
:102d340080698400eafd07000080fa0000000600b4
:102d44000000fa0010c0b30023e8b70090698400c3
:102d5400ea0a070071698400908a200081027800e1
:102d64000002780013c0b30012c0b30001c5b30061
:102d7400e0c1b300e708070010408000eb0f5000eb
:102d84000a003c0071698400a0d628008102780002
:102d94000002780013c0b30012c0b30001c5b30031
:102da40050c0b300db0807000900370071698400d4
:102db400d0d62800810278000002780013c0b30046
:102dc40012c0b30001c5b30050c0b300d10807005e
:102dd4000080fa00000006000200fa00108b2000b8
:102de400104078008000fb00400620000088b900f5
:102df40000017800008b2000104078000000fb00e8
:102e040001fd2f0080804000803e20000088b90032
:102e1400000078008000410000d42e0000814000b2
:102e2400208b2000104078000000fb006a00b900ed
:102e340000007800001eb10080004100308b2000ab
:102e4400104078000000fb000003b1000080400047
:102e5400000fe8009e007800803e2000000178000a
:102e6400110009008200d800004078000043b0003f
:102e740080407800008b2000014878001e01780013
:102e8400b04721000090b900c388de004f90de00f7
:102e940080805000a000200000017800110009008b
:102ea4008200d8008000fd00004078000043b0009c
:102eb40080407800108b2000014878001e017800c3
:102ec400706626000090b900c288de004f90de00d4
:102ed40080805000400620000001780011000900a5
:102ee4008200d8008000fd00004078000043b0005c
:102ef40080407800208b2000014878009e007800f4
:102f0400a000200000017800110009008200d80010
:102f14008000fd00004078000043b000804078004d
:102f2400308b2000014878000080fa000000060081
:102f34000000fa00304080000000e80030408800c3
:102f440030408000eb0f5000020034000628ef00f0
:102f5400a1ff0700fcfa07000080fa000000060049
:102f64000200fa0091698400908a200081027800ae
:102f74000002780013c0b30012c0b30001c5b3004f
:102f8400e0c1b30063080700d08a20001040780035
:102f94000000fb006a00b9000000780001e22f0085
:102fa40080804000e08a2000104078000000fb0090
:102fb4000003b10000804000000fe80030408000b2
:102fc400800040000087200000804000100078004e
:102fd4009e0f500008003d00d08a200001c3b300ba
:102fe40001487800e08a200011c3b300014878004a
:102ff400cfff0700190037001e0178007066260015
:103004000090b900c288de004f90de0000805000be
:10301400004078000043b00080407800d08a20004f
:10302400014878009e007800706626000089b90087
:103034004299de004f88de00000051006a01b900a9
:103044000200780000805000004078000043b00087
:1030540080407800e08a20000148780023c8bf003f
:103064000004e0000900320071698400908a2000a5
:10307400810278000002780013c0b30012c0b300cc
:1030840001c5b300e0c1b300220807000080fa00c4
:10309400000006000000fa00104080000000e80074
:1030a4001040880023c8bf000004e0000100320083
:1030b40049fc070010408000f80f500002003a005d
:1030c4000228ef00a6ff07000080fa0000000600b7
:1030d4000000fa00408a2000104078000040e80018
:1030e40080407800408a200001487800408a20000f
:1030f40090407800a0c3b30080cf500012003a0083
:10310400408a200001c3b30001487800308a2000bf
:10311400104078000040e80080407800308a2000a9
:1031240001487800308a20009040780060c3b300e2
:1031340080cf500004003a00308a200001c3b3005d
:1031440001487800d3ff07000080fa000000060061
:103154000000fa00708a2000104078000040e80067
:1031640080407800708a200001487800708a20002e
:1031740090407800a0c3b30080cf500012003a0002
:10318400708a200001c3b30001487800608a2000df
:10319400104078000040e80080407800608a2000f9
:1031a40001487800608a20009040780060c3b30032
:1031b40080cf500004003a00608a200001c3b300ad
:1031c40001487800c2ff07000080fa0000000600f2
:1031d4000000fa0080002000603a88004627a8001a
:1031e40040062000210b07004627a90040062000c6
:1031f4001e0b070000000000303a800061006000f0
:103204000000e000fcff3200903880000080fa00eb
:10321400000006000600fa00000f7800110798006d
:10322400220798002e00900000407800f0404000f3
:103234002e009000004078001e0278008141780042
:1032440002c6b300804078000040eb002b07070063
:1032540030c928009e0278000002780013c0b30031
:1032640012c0b30021c0b30050c0b300a9070700c7
:10327400e0c928009e0290000002780013c0b30049
:1032840012c0b30011c1b30050c0b300a1070700be
:10329400c0ca28009e0290000002780013c0b30048
:1032a40012c0b30001c2b30050c0b30099070700b5
:1032b40090cb28009e0290000002780013c0b30057
:1032c40012c0b300f1c2b30050c0b30091070700ad
:1032d4000080fa00000006000600fa00000f7800e3
:1032e40011079800220798002e00900000407800f3
:1032f400f04040002e009000004078001e0278004c
:103304008141780002c6b300804078000040eb00a1
:10331400fa06070090cc28009e027800000278008c
:1033240013c0b30012c0b30021c0b30050c0b30037
:1033340078070700a08c20009e029000000278000d
:1033440013c0b30012c0b30011c1b30050c0b30026
:1033540070070700308d20009e0290000002780064
:1033640013c0b30012c0b30001c2b30050c0b30015
:103374006807070070cd28009e02900000027800c4
:1033840013c0b30012c0b300f1c2b30050c0b30005
:1033940060070700c0cd28009e029000000278005c
:1033a40013c0b30012c0b300e1c3b30050c0b300f4
:1033b400580707000080fa00000006000800fa0021
:1033c40010079800210798003207980075fb070042
:1033d4000004e0000300320010ce2800000f780043
:1033e4000200370010cf2800000f78003e00900044
:1033f40000407800f04040003e009000004078001b
:103404001e0290008141780002c6b300804078001b
:103414000040eb00b906070020d02800ae0290005f
:103424000002780013c0b30012c0b30021c0b3007f
:1034340050c0b30037070700f0d02800ae02900058
:103444000002780013c0b30012c0b30011c1b3006e
:1034540050c0b3002f0707001e007800ae02900092
:103464000002780013c0b30012c0b30001c2b3005d
:1034740050c0b3002707070080d12800ae02900097
:103484000002780013c0b30012c0b300f1c2b3004d
:1034940050c0b3001f07070080d22800ae0290007e
:1034a4000002780013c0b30012c0b300e1c3b3003c
:1034b40050c0b300170707000080fa0000000600a0
:1034c4001400fa00100f98000063840000027800d2
:1034d400f3c1b30002c6b300f1c0b3000040eb0077
:1034e400860607001e08900010407800504f980090
:1034f4001e0890000000e80010407800604f98001b
:103504001e0890000080e80010407800704f98007a
:103514000040eb00005798001e0890006300400034
:1035240010407800104f98001e089000640040007e
:1035340010407800204f98001e089000650040005d
:1035440010407800304f98000040eb00404f980046
:103554000040eb00004f9800f15b84006d004700d1
:10356400810278000002780013c0b30012c0b300d7
:1035740011c1b30050c0b300e6060700f15b84003c
:1035840069004700810278000002780013c0b3008c
:1035940012c0b30011c1b30090c1b300dd0607002f
:1035a4000bff070000017800908727000090b90006
:1035b400c388de004f90de00008f5000b00320006f
:1035c4009e007800808f500002003400b003200079
:1035d400000f78001e017800706626000090b90084
:1035e400c288de004f90de0000805000004078006a
:1035f4000043b000604798009e0078007066260083
:103604000089b9004299de004f88de0000005100b5
:103614006a01b90002007800008050000040780080
:103624000043b00070479800f15b840066004700d7
:10363400810278000002780013c0b30012c0b30006
:1036440011c1b300d0c2b300b206070037090700a6
:103654000004e0008c0032008700370040062000a0
:10366400020a0700016384006900470081027800b0
:103674000002780013c0b30012c0b30011c1b3003c
:1036840090c1b300a3060700d1fe07000001780033
:10369400908727000090b900c388de004f90de00b9
:1036a400008050000000e800100798009e00900081
:1036b400b0032000808f500002003400b0032000cb
:1036c400100798001e019000706626000090b90053
:1036d400c288de004f90de00008050000040780079
:1036e4000043b000104f98009e00900070662600c2
:1036f4000089b9004299de004f88de0000005100c5
:103704006a01b9000200780000805000004078008f
:103714000043b000204f9800f15b8400690047002b
:10372400810278000002780013c0b30012c0b30015
:1037340011c1b30090c1b30076060700fb0807006f
:103744000004e0004c00320047003700400620002f
:10375400c6090700016384006d00470081027800f8
:103764000002780013c0b30012c0b30011c1b3004b
:1037740050c0b3006706070095fe070000017800fb
:1037840010fa22000090b900c388de004f90de00da
:10379400008050000000e800200798002e009000f0
:1037a400f70f500002003400700120002007980039
:1037b4002e019000706626000090b900c288de00d9
:1037c4004f90de0000805000004078000043b000bd
:1037d400504f9800ae009000706626000089b90032
:1037e4004299de004f88de00000051006a01b900f2
:1037f4000200780000805000004078000043b000d0
:10380400604f9800f15b84006d00470081027800ee
:103814000002780013c0b30012c0b30011c1b3009a
:1038240050c0b3003b060700c00807000004e000d6
:103834000d0032006d004700800078001e089000e3
:10384400d8f5070069004700800078001e08900042
:10385400baf5070066004700800078001e08900053
:10386400b6f50700160037009d0807000004a20003
:103874000004e000b5ff3a00990807000004a20024
:103884000004e00075ff3a00950807000004e0001a
:103894000a003a0001638400660047008102780050
:1038a4000002780013c0b30012c0b30011c1b3000a
:1038b400d0c2b3001706070039ff3700000000002c
:1038c4000080fa00000006001800fa00300f98008b
:1038d4000063840000027800e3c2b30002c6b300b0
:1038e400e1c1b3000040eb0084050700000323009e
:1038f400400798000040eb00204f980000c2b3003e
:10390400304f98003e08900064004000104078005a
:10391400404f98003e089000650040001040780039
:10392400504f980000c2b300604f98000040eb0075
:10393400704f98003e0890006700400010407800e7
:10394400005798003e08900068004000104078003e
:10395400105798003e08900069004000104078001d
:10396400205798003e0890006a00400010407800fc
:10397400305798000040eb0040579800f15b8400fa
:103984006b004700810278000002780013c0b30086
:1039940012c0b30001c2b30040c1b300dd0507008b
:1039a400f15b840070004700810278000002780017
:1039b40013c0b30012c0b30001c2b300d0c2b3003d
:1039c400d405070002fe0700000178001006260057
:1039d4000090b900c588de004f90de0000805000e2
:1039e400000fe8001e007800ec0f500002003400c5
:1039f400c0002000000f78001e01780070662600c9
:103a04000090b900c288de004f90de0000805000b4
:103a1400004078000043b000004f98009e007800fa
:103a2400706626000089b9004299de004f88de00e6
:103a3400000051006a01b9000200780000805000c3
:103a4400004078000043b000104f9800f15b840000
:103a540068004700810278000002780013c0b300b8
:103a640012c0b30001c2b30050c0b300a9050700df
:103a74002e0807000004e0009a0032001e00e9004e
:103a8400ccf9070030079800920037004006200068
:103a9400f6080700016384006b0047008102780088
:103aa4000002780013c0b30012c0b30001c2b30017
:103ab40040c1b30097050700c5fd07000001780069
:103ac400908727000090b900c488de004f90de0084
:103ad400008050000000e800100798009e0090004d
:103ae4003e009000808f500002003400be00900021
:103af400110798001e019000706626000090b9001e
:103b0400c288de004f90de00008050000040780044
:103b14000043b000404f98009e009000706626005d
:103b24000089b9004299de004f88de000000510090
:103b34006a01b9000200780000805000004078005b
:103b44000043b000504f9800f15b84006b004700c5
:103b5400810278000002780013c0b30012c0b300e1
:103b640001c2b30040c1b3006a050700ef070700b4
:103b74000004e000570032005200370040062000e5
:103b8400ba080700016384007000470081027800ce
:103b94000002780013c0b30012c0b30001c2b30026
:103ba400d0c2b3005b05070089fd0700000178005f
:103bb400706626000090b900c288de004f90de00d7
:103bc4000080500020079800ae00900030062000ce
:103bd400808f500002003400300620002007980037
:103be4002e019000706626000090b900c288de00a5
:103bf4004f90de0000805000004078000043b00089
:103c040020579800ae009000706626000089b90025
:103c14004299de004f88de00000051006a01b900bd
:103c24000200780000805000004078000043b0009b
:103c340030579800f15b84007000470081027800df
:103c44000002780013c0b30012c0b30001c2b30075
:103c5400d0c2b3002f050700b40707000004e0003a
:103c6400180032001e00e90045f9070080007800c2
:103c74003e089000cbf407006b00470080007800fa
:103c84003e089000adf40700700047008000780003
:103c94003e089000a9f40700f15b84001e00780040
:103ca400810278000002780013c0b30012c0b30090
:103cb40001c2b300d0c2b300160507001e00e9001c
:103cc40017003700860707000004a2000004e00084
:103cd400aaff3a00820707000004a2000004e000e3
:103ce4006aff3a007e0707000004e0000200320089
:103cf4000000eb000a0037000163840068004700fd
:103d0400810278000002780013c0b30012c0b3002f
:103d140001c2b30050c0b300fe04070029ff3700fe
:103d24000080fa00000006000400fa0010002000e1
:103d3400000f7800308d200063f80700a08c20006d
:103d44005af807001e0078006f00b9008000780060
:103d5400506284000101780080007800f0012000a6
:103d64005dfd070001003700000000000000eb00cb
:103d7400100798006d0707000004e0003f003200c0
:103d84001e007800e10f500013003a00d00020001c
:103d940010079800a08c2000c9fd07001e007800c1
:103da4006f00b9000001780001638400006384009f
:103db40049fd07001e0078006f00b90080007800fc
:103dc400506284000101780080007800f001200036
:103dd40041fd0700290037001e007800e20f500063
:103de40012003a00308d2000b7fe0700100798003b
:103df4001e0078006f00b9000001780001638400a0
:103e04000063840034fd07001e0078006f00b900d1
:103e140080007800506284000101780080007800fe
:103e2400f00120002cfd0700140037001e0078006c
:103e3400e30f500008003a00a08c20006cf8070043
:103e44001e009000ec0f500003003c009e00900008
:103e5400308d200023f807001e0078006f00b900a1
:103e64000001780001638400006384001afd0700e8
:103e74001e0090000080fa000000060018070700ea
:103e84000004e000b8ff32001e0078006f00b900a3
:103e94000001780001638400006384000efd0700c4
:103ea4001e0078000020a20000f0a7000000ea0035
:103eb4000000e9004f00de00004078001e0fe8001b
:103ec4000004e0000200320010002000000f78001f
:103ed4001e0078006f00b9008000780050628400f2
:103ee4000101780080007800f0012000fafc07004e
:103ef4009eff37000200fa0010002000000f780037
:103f0400308d2000f0f70700a08c2000e7f70700b1
:103f14001e0078006f00b9008000780050628400b1
:103f24000101780080007800f0012000eafc07001d
:103f34000100370000000000fc0607000004e00058
:103f4400360032001e007800e10f500011003a00e4
:103f5400a08c20005afd07001e0078006f00b900f5
:103f6400000178000163840000638400dafc070028
:103f74001e0078006f00b900800078005062840051
:103f84000101780080007800f0012000d2fc0700d5
:103f9400220037001e007800e20f500011003a00a2
:103fa400308d200048fe07001e0078006f00b90025
:103fb400000178000163840000638400c6fc0700ec
:103fc4001e0078006f00b900800078005062840001
:103fd4000101780080007800f0012000befc070099
:103fe4000e0037001e007800e30f500003003a0073
:103ff400318d2000a08c2000f0f707001e0078000f
:104004006f00b9000001780001638400006384003c
:10401400b1fc07000080fa0000000600b0060700ab
:104024000004e000c3ff32001e0078006f00b900f6
:10403400000178000163840000638400a6fc07008b
:104044001e0078000020a20000f0a7000000ea0093
:104054000000e9004f00de00004078001e0fe80079
:104064000004e0000200320010002000000f78007d
:104074001e0078006f00b900800078005062840050
:104084000101780080007800f001200092fc070014
:10409400a9ff37000200fa0010002000000f78008a
:1040a400308d200088f70700a08c20007ff70700e0
:1040b4001e0078006f00b900800078005062840010
:1040c4000101780080007800f001200051fc070015
:1040d4000100370000000000940607000004e0001f
:1040e400120032001e007800e10f500003003a0075
:1040f4000000eb00b1f607002b0037001e0078002b
:10410400e20f500003003a0010002000abf6070055
:10411400250037001e007800e30f500021003a000c
:1041240030002000a5f607001f0037006c060700ca
:104134000004e000e7ff32001e0078006f00b900c1
:1041440000017800016384000063840031fc0700ef
:104154001e0078000020a20000f0a7000000ea0082
:104164000000e9004f00de00004078001e0fe80068
:104174000004e0000200320010002000000f78006c
:104184001e0078006f00b90080007800506284003f
:104194000101780080007800f00120001dfc070078
:1041a400cdff3700000000000080fa000000060088
:1041b4000400fa000000eb00000f78005062840055
:1041c4001e01780080007800f00120007bfc0700cd
:1041d4000100370000000000540607000004e0005e
:1041e4002f0032001e0078006f00b9000001780033
:1041f400016384000063840070fc07001e007800e3
:10420400e10f500012003a00c7fe070010079800a3
:104214001e009000e20f500002003c0077f60700f9
:104224003e0037000000eb00000f78001e0078000d
:104234006f00b900800078005062840001017800aa
:1042440080007800f00120005cfc070014003700b7
:104254001e007800e30f500003003a0025ff07001a
:1042640066f607002d0037001e0078000000e0000d
:1042740001003a0087ff07001e007800e20f50009b
:1042840002003a0026f607005cf607001e007800dc
:10429400e40f500020003a0058f607001f003700d2
:1042a4000f0607000004e000caff32001e00780079
:1042b4006f00b9000001780001638400006384008a
:1042c4003efc07001e0078000020a20000f0a700ba
:1042d4000000ea000000e9004f00de000040780022
:1042e4001e0fe8000004e000020032000000eb00b2
:1042f400000f78001e0078006f00b900800078007d
:10430400506284000101780080007800f0012000f0
:104314002afc0700b0ff3700000000000080fa000c
:10432400000006000000fa00b5050700ba05070002
:10433400006384007105070076f707000000eb00b6
:104344001ef607000100370000000000f705070013
:104354000004e000fcff320010c0b3001ce8b7000a
:1043640000638400650507002000200013f60700a1
:104374008fff070072fa07001c68ef00f3ff370095
:104384000400fa0020479800314798002e4090001e
:104394008080fb003e4090000000fb00008f400046
:1043a40060972800104078000080fb009e0f5000aa
:1043b40003003d0060972800104078000800370093
:1043c4001e0078000000e00002003d000040eb0009
:1043d40003003700be4090002e40900000c0400013
:1043e4000080fa00000006000200fa00004f780086
:1043f4001147980060972800104078009e4078008c
:1044040080cf500005003e007097280010407800cf
:104414009e40900080cf5000020036000000eb0068
:1044240007003700f1c5b3001e4078009c04070064
:10443400f1c5b3001e40900084040700c0040700c7
:104444000080fa00000006000400fa00004f780023
:1044540011479800120798006097280010407800d0
:104464009e40780080cf50000e003e0070972800d8
:10447400104078009e40900080cf50000b003e001a
:10448400f1c5b3001e40780085040700f1c5b300f0
:104494001e4090006d0407001e009000c204070037
:1044a4000300370000000000010037000000000096
:1044b4000080fa00000006000e00fa00004f980089
:1044c400114f9800224f9800630798000e489000ff
:1044d4008080fb002e4890000080fb00808050000c
:1044e40060972800104078000080fb00808f500007
:1044f40070003c001e4890008080fb002e48900015
:104504000080fb00808050007097280010407800e5
:104514000080fb00808f500068003c002e48900013
:104524000004e00001003a0010c0b300204f9800de
:104534002e489000804078000e48900090ff0700bd
:10454400204798002e4890000040ea008040780000
:104554000e4890008aff0700304798002e489000cc
:10456400804078001e48900085ff0700404798006f
:104574002e4890000040ea00804078001e489000d9
:104584007fff070050479800be409000014f78001d
:10459400430037000e4890009e4f5000030039003e
:1045a4000e4890001e405000030037009e407800e3
:1045b4000e48900000c0500060479800de40900014
:1045c40011479800310037009e4890001e4090002b
:1045d40080cf5000040039009e4890001e40900097
:1045e40000c05000030037009e4090001e48900019
:1045f40000c05000704798007e4090008080fb000f
:104604006e4090000080fb00808040002e489000a7
:104614000080fb00808f5000150034007e40900025
:104624008080fb007e4090000080fb000088b90081
:10463400000178006e4090008080fb006e40900086
:104644000080fb000088b9000000780000014100f0
:104654002e4890008080fb002e4890000080fb00d4
:104664000088b90000007800800f510004003c006d
:104674006e0190009e4090001e40780072ff07007b
:104684001e4090000040e800104798009e409000b3
:104694004e40900080cf5000cbff39001e4fe80001
:1046a4002e4090009e40780080cf5000b9ff390022
:1046b4000300370000000000010037000000000084
:1046c4000080fa00000006000c00fa006047980021
:1046d40071479800024f9800530798000040eb0080
:1046e400104798000040eb00204798000040eb0082
:1046f400304798000000eb00200798000e48900017
:104704000004e00001003a0010c0b300004f98001c
:104714000e4890000040e800004f78000040eb0095
:10472400104798000040eb00204798000000eb0081
:1047340020079800670037001e4090000000fb002f
:10474400000040000000e800ae009000008040003f
:10475400200798001e4090000040e8001047980091
:104764002e0090000000e0005a0035004c00370095
:10477400ae4090003147980043003700ae409000af
:104784007e40900080c040003e4190006e4090000a
:10479400004041005e0190002bff07002e40900076
:1047a400fe40900080c050003e4190006e4090005a
:1047b400004041005e01900023ff0700ae409000de
:1047c4007e40900080c040003e4090006e419000ca
:1047d400004051005e0190001bff07002e40900036
:1047e400fe40900080c050003e4090006e4190001a
:1047f400004051005e01900013ff0700be4090008e
:104804007e40900080c040002e4190006e40900099
:10481400004041005e0190000bff07003e40900005
:10482400fe40900080c050002e4190006e409000e9
:10483400004041005e01900003ff0700be4090006d
:104844007e40900080c040002e4090006e41900059
:10485400004051005e019000fbfe07003e409000c6
:10486400fe40900080c050002e4090006e419000a9
:10487400004051005e019000f3fe07003e409000ae
:104884000040e800304798003e4090009e4f5000a2
:10489400baff35002e4090000040e8002047980001
:1048a400ae4090001e40900080cf5000b0ff350015
:1048b4009e00fb00e0ff2f000088b9000000780094
:1048c4000000e800ae00900000804000200798003f
:1048d4001e4fe9001e4090009e40780080cf50009b
:1048e40095ff3d000080fa00000006000a00fa006f
:1048f40040479800514798006247980073479800d2
:10490400440798007e4090000080fb000000d10026
:1049140000407800ee40900000c0400060479800de
:1049240064003700ee409000014f78000040eb0037
:10493400104798000000eb0010079800560037005d
:104944009e4090005e40900080c040001e41780070
:104954004e409000004041004e019000bafe070016
:104964001e409000de40900080c050001e41780040
:104974004e409000004041004e019000b2fe0700fe
:104984009e4090005e40900080c040001e40780031
:104994004e419000004051004e019000aafe0700d5
:1049a4001e409000de40900080c050001e40780001
:1049b4004e419000004051004e019000a2fe0700bd
:1049c4009e4078005e40900080c040001e419000f0
:1049d4004e409000004041004e0190009afe0700b6
:1049e4001e407800de40900080c050001e419000c0
:1049f4004e409000004041004e01900092fe07009e
:104a04009e4078005e40900080c040001e409000b0
:104a14004e419000004051004e0190008afe070074
:104a24001e407800de40900080c050001e40900080
:104a34004e419000004051004e01900082fe07005c
:104a44001e4090000000fb00000040000000e80051
:104a54009e00900000804000100798001e409000c7
:104a64000040e800104798001e0090000000e0009d
:104a7400090035009e00fb00e0ff2f000088b9000c
:104a8400000078000000e8009e00900000804000d4
:104a9400100798001e4fe9001e4090009e407800c9
:104aa40080cf5000a6ff3d006e4090000040e9001a
:104ab400604798007e4090000080fb000000ea0000
:104ac4004f00de0000407800fe4090008140e90085
:104ad400714798000004e00092ff3a000080fa0059
:104ae400000006000600fa0010079800210798004d
:104af4001e009000104f78002e0090009040780027
:104b04001e009000014878002e0090001e48780096
:104b14000080fa00000006000800fa00000f780088
:104b24001107980022079800330798001e007800a8
:104b3400904078002e0090001040780080cf500004
:104b440006003600ae0090001e007800e5ff070066
:104b5400be0090001e009000e2ff07000080fa00f3
:104b6400000006000800fa00000f78001107980002
:104b740022079800330798001e00900090407800a8
:104b84003e0090001040780080cf500006003600b0
:104b9400ae0090001e007800d2ff0700be00900017
:104ba4001e009000cfff07000080fa0000000600fe
:104bb4000600fa00004f7800114798002247980039
:104bc400230798002e409000e14f500005003e005e
:104bd4002e0190009e4090001e4078001afe0700af
:104be400090037002e4090000080fb000000d10037
:104bf40000407800ae019000004178009e40900093
:104c04001e407800b0fe07000080fa000000060095
:104c14001000fa00889fbe00004f9800114f9800c2
:104c2400224f9800334f9800444f9800750798001e
:104c34004e4890000004e00001003a0010c0b300a8
:104c4400404f9800ae4890000e48900000c05000bd
:104c540020479800be4890001e48900000c05000b5
:104c6400304798003e4090000004e00017003a00ee
:104c74002e4090000004e0009a003200eb0147004f
:104c84006a014700e900470068004700a2ff0700e7
:104c94008e489000014f7800070037001e489000ae
:104ca400fe0190004e499000804078001e4078003c
:104cb400bfff07001e4fe8002e4890009e4078007a
:104cc40080cf5000f5ff3600890037002e40900059
:104cd4000004e00018003a003e4090000004e000a8
:104ce40082003200eb0147006a014700e9004700f7
:104cf400680047009bff07009e48900011479800fa
:104d0400080037000e489000fe0190004e499000c4
:104d14009e409000a6ff07001e4090000040e8005f
:104d2400104798003e4890009e40900080cf50006d
:104d3400f4ff36006e0037002e4090000000fb00a8
:104d44008000780001f0a7008100ea003e40900056
:104d54000000fb0000f0a7000000ea00808f500074
:104d64002f0034003e4090000000fb00cf80de00a6
:104d7400ceee07000004be002e4090000000fb00b1
:104d8400cf80de00c9ee07000001be000800be00af
:104d940048ee07002007980031079800eb01470010
:104da4006a014700e9004700680047005aff07000e
:104db4008e489000014f7800140037009e80fb005d
:104dc4000e4890000080fb0000805000cf80de0081
:104dd400b6ee07002e019000be0190000bef070015
:104de40076ee070000007800804078001e489000ae
:104df40000c04000fe0190004e49900080407800c1
:104e04001e4078006aff07001e4fe8002e489000fd
:104e14009e40780080cf5000e8ff3900340037000e
:104e24002e4090000000fb00cf80de009fee0700c4
:104e34000004be003e4090000000fb00cf80de0076
:104e44009aee07000001be000800be0019ee07003c
:104e54002007980031079800eb0147006a014700da
:104e6400e9004700680047003eff07009e489000a5
:104e740011479800160037001e4090008080fb0008
:104e84001e4890000080fb0000805000cf80de00b0
:104e940086ee07002e019000be019000dbee0700b5
:104ea40046ee070000007800804078000e4890002d
:104eb40000c04000fe0190004e4990009e409000ca
:104ec4003bff07001e4090000040e8001047980098
:104ed4003e4890009e40900080cf5000e6ff39008d
:104ee400030037000000000001003700000000004c
:104ef4004f04be000080fa00000006000800fa001b
:104f0400204798003147980042479800534798003b
:104f140034079800ce4090002e409000e001070036
:104f2400de4090003e409000c8010700ae40900073
:104f3400014f780010003700be40900011479800e0
:104f4400050037003e009000170207001e40900045
:104f54000040e800104798001e4090008080fb004d
:104f64005e4090000080fb000000e800808f50004d
:104f7400f4ff35001e4fe8009e80fb004e40900079
:104f84000080fb000000e800808f5000eaff35003d
:104f94000080fa00000006001000fa00004f98009c
:104fa400114f9800224f9800334f9800444f9800b7
:104fb400750798004e4890000080fb0001fe2f000a
:104fc4008080400080972800104078000080fb001b
:104fd4000088b9000000780080007800a0972800bd
:104fe400008f40000000eb00100798003c003700e1
:104ff4001e00780090407800614798001e0fe8007a
:1050040090972800104078008080fb003e48900074
:105014000080fb000088b900000078002007980099
:10502400270037006e4090000080fb0061006000a4
:10503400004078000004e000180032002e009000c8
:10504400804078001e48900080c040003e48900098
:1050540000c040008041e9001e00900080407800bc
:105064000e48900080c040002e48900000c04000d0
:105074000041e9002e009000804078001e48900016
:1050840080c040001e009000004278000e4890004e
:10509400004042007e02900098ff07006e4090009e
:1050a4000080fb000000d100604798003e4890005b
:1050b4000080fb00ae0090000080500020079800a4
:1050c4002e0090000000e000d6ff3a002e48900029
:1050d4000080fb009e0090000080400010079800b4
:1050e40080972800104078008080fb002e489000b4
:1050f4000080fb000088b900000078008000780080
:105104001e009000808f5000b9ff3e000080fa001e
:10511400000006000800fa00004f780011479800cc
:1051240022479800334798002407980035079800d1
:10513400150037002e00900010407800ae0090005b
:105144008100e80021079800be0290000042780028
:10515400be4190002e4190009e4090001e40780079
:105164008dff07008097280010407800ae40900023
:105174008180fb000088b9000000780000407800be
:105184001e404000004fe8002e00900010407800c0
:105194000004e000e7ff3a000080fa000000060087
:1051a4001400fa00204f9800314f980062079800cd
:1051b400634f9800744f9800050f98002657980085
:1051c40000c2b300604798006e4890000004e000fd
:1051d400020032006e4890000100370010c0b30096
:1051e400604f98007e4890000004e0000200320006
:1051f4007e4890000100370010c0b300704f980043
:105204000040eb00004f7800510037000e0890007a
:105214001001be0012079800230798000e089000a2
:1052240064004000000f98001e407800fe48900083
:105234008180fb000088b90000007800804078007d
:105244003e48900000c04000704798000040eb00ca
:1052540010479800390037001e019000ae019000fd
:1052640010002000010020000202780003017800f1
:1052740080017800010078000302620000006100f0
:105284008000eb00c000dd00000020000001be0033
:105294006120b8000001710081817100e00f5100ac
:1052a400e08f59001c003a006e4090008080fb00a3
:1052b4001e4090000080fb000080500000407800f9
:1052c400ee4890008180fb000088b900000078005f
:1052d400804078002e48900000c04000004f9800a5
:1052e400fe4090007e48900000c040008040e900ed
:1052f4000e4990006e489000004041000040e900d3
:105304006e0290008141780000417800fe409000d8
:105314000e489000f9fe07001e009000ae009000b9
:105324008100d1000080d300100798002107980065
:105334001e4090000040e800104798009e409000f6
:105344006e40900080cf5000c3ff39001e4fe8002c
:105354002e5090009e40780080cf5000abff390063
:105364000080fa00000006000200fa00000f780036
:10537400c00520009e007800808f50000400320099
:10538400d00520009e007800808f500009003a006c
:10539400c00520009e007800808f500002003a0073
:1053a40010c0b3000100370020c0b30018e8b700f4
:1053b400010037001868ef000080fa0000000600c2
:1053c4000200fa00004f7800114798000901070015
:1053d4000004a2000004e000020032000080eb00a0
:1053e4000c0037001e407800f7010700004f7800da
:1053f4001e409000f401070010479800de010700ea
:105404001e80fb00c800dd001e4090000080fb00f1
:10541400010070000080fa00000006000200fa009b
:1054240020c3b300004f780012c0b3008e00780090
:10543400000a20006600070000c2b300004f780095
:1054440012c0b3008e007800100a2000600007002c
:105454000080fa00000006000000fa000041eb00a2
:105464008000eb00c0052000590007008f26a9002a
:105474008e66a8000080fa00000006000000fa0012
:105484000041eb008000eb00d00520005000070035
:105494008f26a9008e66a8000080fa00000006008e
:1054a4000800fa0000017800310798003e009000df
:1054b4004800de00004f78003e009000104798003e
:1054c4001e80fb004300de00004078002047980067
:1054d4001e80fb00670060004300dd008040780010
:1054e4001e4090000080fb004500de000040780074
:1054f40000c07000304798001e4090007f4060005c
:10550400404798000e80e8008200780090487800b8
:105514008100e8000000e800904878008100e8007d
:105524000000e800904878008100e8000000e800ee
:10553400020078000080fa00000006000600fa006d
:105544002047980031479800424798002e40900029
:105554007f406000204798003e409000f043b20036
:10556400304798004e4090007f40600040479800cc
:105574002e4090000080fb004300dd008040780056
:105584003e4090000080fb004300de0000407800b5
:1055940000c07000004f78003e4090000080fb0087
:1055a4004500dd00804078004e40900000c070004f
:1055b400104798001e80fb00c800dd001e409000cc
:1055c4000080fb00010070000080fa00000006006b
:1055d4000600fa00000f780011079800424798006f
:1055e400840007000004a2000004e00014003a0054
:1055f4008f26a9008e66a9001e007800004078005e
:10560400710107004e4090000004e00007003200e2
:105614008e66a8004e4090000080fb008000780059
:105624001e0090008e0107008e66a9008f26a80038
:10563400510107001e0078004bff070001003700ee
